{
  "_format": "hh-sol-artifact-1",
  "contractName": "Alkebulantribe",
  "sourceName": "contracts/Alkebulantribe.sol",
  "abi": [
    {
      "inputs": [
        {
          "internalType": "string",
          "name": "_tokenName",
          "type": "string"
        },
        {
          "internalType": "string",
          "name": "_tokenSymbol",
          "type": "string"
        },
        {
          "internalType": "uint256",
          "name": "_cost",
          "type": "uint256"
        },
        {
          "internalType": "uint256",
          "name": "_maxSupply",
          "type": "uint256"
        },
        {
          "internalType": "uint256",
          "name": "_maxMintAmountPerTx",
          "type": "uint256"
        },
        {
          "internalType": "string",
          "name": "_hiddenMetadataUri",
          "type": "string"
        }
      ],
      "stateMutability": "nonpayable",
      "type": "constructor"
    },
    {
      "inputs": [],
      "name": "ApprovalCallerNotOwnerNorApproved",
      "type": "error"
    },
    {
      "inputs": [],
      "name": "ApprovalQueryForNonexistentToken",
      "type": "error"
    },
    {
      "inputs": [],
      "name": "ApprovalToCurrentOwner",
      "type": "error"
    },
    {
      "inputs": [],
      "name": "ApproveToCaller",
      "type": "error"
    },
    {
      "inputs": [],
      "name": "BalanceQueryForZeroAddress",
      "type": "error"
    },
    {
      "inputs": [],
      "name": "InvalidQueryRange",
      "type": "error"
    },
    {
      "inputs": [],
      "name": "MintToZeroAddress",
      "type": "error"
    },
    {
      "inputs": [],
      "name": "MintZeroQuantity",
      "type": "error"
    },
    {
      "inputs": [],
      "name": "OwnerQueryForNonexistentToken",
      "type": "error"
    },
    {
      "inputs": [],
      "name": "TransferCallerNotOwnerNorApproved",
      "type": "error"
    },
    {
      "inputs": [],
      "name": "TransferFromIncorrectOwner",
      "type": "error"
    },
    {
      "inputs": [],
      "name": "TransferToNonERC721ReceiverImplementer",
      "type": "error"
    },
    {
      "inputs": [],
      "name": "TransferToZeroAddress",
      "type": "error"
    },
    {
      "inputs": [],
      "name": "URIQueryForNonexistentToken",
      "type": "error"
    },
    {
      "anonymous": false,
      "inputs": [
        {
          "indexed": true,
          "internalType": "address",
          "name": "owner",
          "type": "address"
        },
        {
          "indexed": true,
          "internalType": "address",
          "name": "approved",
          "type": "address"
        },
        {
          "indexed": true,
          "internalType": "uint256",
          "name": "tokenId",
          "type": "uint256"
        }
      ],
      "name": "Approval",
      "type": "event"
    },
    {
      "anonymous": false,
      "inputs": [
        {
          "indexed": true,
          "internalType": "address",
          "name": "owner",
          "type": "address"
        },
        {
          "indexed": true,
          "internalType": "address",
          "name": "operator",
          "type": "address"
        },
        {
          "indexed": false,
          "internalType": "bool",
          "name": "approved",
          "type": "bool"
        }
      ],
      "name": "ApprovalForAll",
      "type": "event"
    },
    {
      "anonymous": false,
      "inputs": [
        {
          "indexed": true,
          "internalType": "address",
          "name": "previousOwner",
          "type": "address"
        },
        {
          "indexed": true,
          "internalType": "address",
          "name": "newOwner",
          "type": "address"
        }
      ],
      "name": "OwnershipTransferred",
      "type": "event"
    },
    {
      "anonymous": false,
      "inputs": [
        {
          "indexed": true,
          "internalType": "address",
          "name": "from",
          "type": "address"
        },
        {
          "indexed": true,
          "internalType": "address",
          "name": "to",
          "type": "address"
        },
        {
          "indexed": true,
          "internalType": "uint256",
          "name": "tokenId",
          "type": "uint256"
        }
      ],
      "name": "Transfer",
      "type": "event"
    },
    {
      "inputs": [
        {
          "internalType": "address",
          "name": "to",
          "type": "address"
        },
        {
          "internalType": "uint256",
          "name": "tokenId",
          "type": "uint256"
        }
      ],
      "name": "approve",
      "outputs": [],
      "stateMutability": "nonpayable",
      "type": "function"
    },
    {
      "inputs": [
        {
          "internalType": "address",
          "name": "owner",
          "type": "address"
        }
      ],
      "name": "balanceOf",
      "outputs": [
        {
          "internalType": "uint256",
          "name": "",
          "type": "uint256"
        }
      ],
      "stateMutability": "view",
      "type": "function"
    },
    {
      "inputs": [],
      "name": "cost",
      "outputs": [
        {
          "internalType": "uint256",
          "name": "",
          "type": "uint256"
        }
      ],
      "stateMutability": "view",
      "type": "function"
    },
    {
      "inputs": [
        {
          "internalType": "uint256",
          "name": "tokenId",
          "type": "uint256"
        }
      ],
      "name": "explicitOwnershipOf",
      "outputs": [
        {
          "components": [
            {
              "internalType": "address",
              "name": "addr",
              "type": "address"
            },
            {
              "internalType": "uint64",
              "name": "startTimestamp",
              "type": "uint64"
            },
            {
              "internalType": "bool",
              "name": "burned",
              "type": "bool"
            }
          ],
          "internalType": "struct IERC721A.TokenOwnership",
          "name": "",
          "type": "tuple"
        }
      ],
      "stateMutability": "view",
      "type": "function"
    },
    {
      "inputs": [
        {
          "internalType": "uint256[]",
          "name": "tokenIds",
          "type": "uint256[]"
        }
      ],
      "name": "explicitOwnershipsOf",
      "outputs": [
        {
          "components": [
            {
              "internalType": "address",
              "name": "addr",
              "type": "address"
            },
            {
              "internalType": "uint64",
              "name": "startTimestamp",
              "type": "uint64"
            },
            {
              "internalType": "bool",
              "name": "burned",
              "type": "bool"
            }
          ],
          "internalType": "struct IERC721A.TokenOwnership[]",
          "name": "",
          "type": "tuple[]"
        }
      ],
      "stateMutability": "view",
      "type": "function"
    },
    {
      "inputs": [
        {
          "internalType": "uint256",
          "name": "tokenId",
          "type": "uint256"
        }
      ],
      "name": "getApproved",
      "outputs": [
        {
          "internalType": "address",
          "name": "",
          "type": "address"
        }
      ],
      "stateMutability": "view",
      "type": "function"
    },
    {
      "inputs": [],
      "name": "hiddenMetadataUri",
      "outputs": [
        {
          "internalType": "string",
          "name": "",
          "type": "string"
        }
      ],
      "stateMutability": "view",
      "type": "function"
    },
    {
      "inputs": [
        {
          "internalType": "address",
          "name": "owner",
          "type": "address"
        },
        {
          "internalType": "address",
          "name": "operator",
          "type": "address"
        }
      ],
      "name": "isApprovedForAll",
      "outputs": [
        {
          "internalType": "bool",
          "name": "",
          "type": "bool"
        }
      ],
      "stateMutability": "view",
      "type": "function"
    },
    {
      "inputs": [],
      "name": "maxMintAmountPerTx",
      "outputs": [
        {
          "internalType": "uint256",
          "name": "",
          "type": "uint256"
        }
      ],
      "stateMutability": "view",
      "type": "function"
    },
    {
      "inputs": [],
      "name": "maxSupply",
      "outputs": [
        {
          "internalType": "uint256",
          "name": "",
          "type": "uint256"
        }
      ],
      "stateMutability": "view",
      "type": "function"
    },
    {
      "inputs": [],
      "name": "merkleRoot",
      "outputs": [
        {
          "internalType": "bytes32",
          "name": "",
          "type": "bytes32"
        }
      ],
      "stateMutability": "view",
      "type": "function"
    },
    {
      "inputs": [
        {
          "internalType": "uint256",
          "name": "_mintAmount",
          "type": "uint256"
        }
      ],
      "name": "mint",
      "outputs": [],
      "stateMutability": "payable",
      "type": "function"
    },
    {
      "inputs": [
        {
          "internalType": "uint256",
          "name": "_mintAmount",
          "type": "uint256"
        },
        {
          "internalType": "address",
          "name": "_receiver",
          "type": "address"
        }
      ],
      "name": "mintForAddress",
      "outputs": [],
      "stateMutability": "nonpayable",
      "type": "function"
    },
    {
      "inputs": [],
      "name": "name",
      "outputs": [
        {
          "internalType": "string",
          "name": "",
          "type": "string"
        }
      ],
      "stateMutability": "view",
      "type": "function"
    },
    {
      "inputs": [],
      "name": "owner",
      "outputs": [
        {
          "internalType": "address",
          "name": "",
          "type": "address"
        }
      ],
      "stateMutability": "view",
      "type": "function"
    },
    {
      "inputs": [
        {
          "internalType": "uint256",
          "name": "tokenId",
          "type": "uint256"
        }
      ],
      "name": "ownerOf",
      "outputs": [
        {
          "internalType": "address",
          "name": "",
          "type": "address"
        }
      ],
      "stateMutability": "view",
      "type": "function"
    },
    {
      "inputs": [],
      "name": "paused",
      "outputs": [
        {
          "internalType": "bool",
          "name": "",
          "type": "bool"
        }
      ],
      "stateMutability": "view",
      "type": "function"
    },
    {
      "inputs": [],
      "name": "renounceOwnership",
      "outputs": [],
      "stateMutability": "nonpayable",
      "type": "function"
    },
    {
      "inputs": [],
      "name": "revealed",
      "outputs": [
        {
          "internalType": "bool",
          "name": "",
          "type": "bool"
        }
      ],
      "stateMutability": "view",
      "type": "function"
    },
    {
      "inputs": [
        {
          "internalType": "address",
          "name": "from",
          "type": "address"
        },
        {
          "internalType": "address",
          "name": "to",
          "type": "address"
        },
        {
          "internalType": "uint256",
          "name": "tokenId",
          "type": "uint256"
        }
      ],
      "name": "safeTransferFrom",
      "outputs": [],
      "stateMutability": "nonpayable",
      "type": "function"
    },
    {
      "inputs": [
        {
          "internalType": "address",
          "name": "from",
          "type": "address"
        },
        {
          "internalType": "address",
          "name": "to",
          "type": "address"
        },
        {
          "internalType": "uint256",
          "name": "tokenId",
          "type": "uint256"
        },
        {
          "internalType": "bytes",
          "name": "_data",
          "type": "bytes"
        }
      ],
      "name": "safeTransferFrom",
      "outputs": [],
      "stateMutability": "nonpayable",
      "type": "function"
    },
    {
      "inputs": [
        {
          "internalType": "address",
          "name": "operator",
          "type": "address"
        },
        {
          "internalType": "bool",
          "name": "approved",
          "type": "bool"
        }
      ],
      "name": "setApprovalForAll",
      "outputs": [],
      "stateMutability": "nonpayable",
      "type": "function"
    },
    {
      "inputs": [
        {
          "internalType": "uint256",
          "name": "_cost",
          "type": "uint256"
        }
      ],
      "name": "setCost",
      "outputs": [],
      "stateMutability": "nonpayable",
      "type": "function"
    },
    {
      "inputs": [
        {
          "internalType": "string",
          "name": "_hiddenMetadataUri",
          "type": "string"
        }
      ],
      "name": "setHiddenMetadataUri",
      "outputs": [],
      "stateMutability": "nonpayable",
      "type": "function"
    },
    {
      "inputs": [
        {
          "internalType": "uint256",
          "name": "_maxMintAmountPerTx",
          "type": "uint256"
        }
      ],
      "name": "setMaxMintAmountPerTx",
      "outputs": [],
      "stateMutability": "nonpayable",
      "type": "function"
    },
    {
      "inputs": [
        {
          "internalType": "bytes32",
          "name": "_merkleRoot",
          "type": "bytes32"
        }
      ],
      "name": "setMerkleRoot",
      "outputs": [],
      "stateMutability": "nonpayable",
      "type": "function"
    },
    {
      "inputs": [
        {
          "internalType": "bool",
          "name": "_state",
          "type": "bool"
        }
      ],
      "name": "setPaused",
      "outputs": [],
      "stateMutability": "nonpayable",
      "type": "function"
    },
    {
      "inputs": [
        {
          "internalType": "bool",
          "name": "_state",
          "type": "bool"
        }
      ],
      "name": "setRevealed",
      "outputs": [],
      "stateMutability": "nonpayable",
      "type": "function"
    },
    {
      "inputs": [
        {
          "internalType": "string",
          "name": "_uriPrefix",
          "type": "string"
        }
      ],
      "name": "setUriPrefix",
      "outputs": [],
      "stateMutability": "nonpayable",
      "type": "function"
    },
    {
      "inputs": [
        {
          "internalType": "string",
          "name": "_uriSuffix",
          "type": "string"
        }
      ],
      "name": "setUriSuffix",
      "outputs": [],
      "stateMutability": "nonpayable",
      "type": "function"
    },
    {
      "inputs": [
        {
          "internalType": "bool",
          "name": "_state",
          "type": "bool"
        }
      ],
      "name": "setWhitelistMintEnabled",
      "outputs": [],
      "stateMutability": "nonpayable",
      "type": "function"
    },
    {
      "inputs": [
        {
          "internalType": "bytes4",
          "name": "interfaceId",
          "type": "bytes4"
        }
      ],
      "name": "supportsInterface",
      "outputs": [
        {
          "internalType": "bool",
          "name": "",
          "type": "bool"
        }
      ],
      "stateMutability": "view",
      "type": "function"
    },
    {
      "inputs": [],
      "name": "symbol",
      "outputs": [
        {
          "internalType": "string",
          "name": "",
          "type": "string"
        }
      ],
      "stateMutability": "view",
      "type": "function"
    },
    {
      "inputs": [
        {
          "internalType": "uint256",
          "name": "_tokenId",
          "type": "uint256"
        }
      ],
      "name": "tokenURI",
      "outputs": [
        {
          "internalType": "string",
          "name": "",
          "type": "string"
        }
      ],
      "stateMutability": "view",
      "type": "function"
    },
    {
      "inputs": [
        {
          "internalType": "address",
          "name": "owner",
          "type": "address"
        }
      ],
      "name": "tokensOfOwner",
      "outputs": [
        {
          "internalType": "uint256[]",
          "name": "",
          "type": "uint256[]"
        }
      ],
      "stateMutability": "view",
      "type": "function"
    },
    {
      "inputs": [
        {
          "internalType": "address",
          "name": "owner",
          "type": "address"
        },
        {
          "internalType": "uint256",
          "name": "start",
          "type": "uint256"
        },
        {
          "internalType": "uint256",
          "name": "stop",
          "type": "uint256"
        }
      ],
      "name": "tokensOfOwnerIn",
      "outputs": [
        {
          "internalType": "uint256[]",
          "name": "",
          "type": "uint256[]"
        }
      ],
      "stateMutability": "view",
      "type": "function"
    },
    {
      "inputs": [],
      "name": "totalSupply",
      "outputs": [
        {
          "internalType": "uint256",
          "name": "",
          "type": "uint256"
        }
      ],
      "stateMutability": "view",
      "type": "function"
    },
    {
      "inputs": [
        {
          "internalType": "address",
          "name": "from",
          "type": "address"
        },
        {
          "internalType": "address",
          "name": "to",
          "type": "address"
        },
        {
          "internalType": "uint256",
          "name": "tokenId",
          "type": "uint256"
        }
      ],
      "name": "transferFrom",
      "outputs": [],
      "stateMutability": "nonpayable",
      "type": "function"
    },
    {
      "inputs": [
        {
          "internalType": "address",
          "name": "newOwner",
          "type": "address"
        }
      ],
      "name": "transferOwnership",
      "outputs": [],
      "stateMutability": "nonpayable",
      "type": "function"
    },
    {
      "inputs": [],
      "name": "uriPrefix",
      "outputs": [
        {
          "internalType": "string",
          "name": "",
          "type": "string"
        }
      ],
      "stateMutability": "view",
      "type": "function"
    },
    {
      "inputs": [],
      "name": "uriSuffix",
      "outputs": [
        {
          "internalType": "string",
          "name": "",
          "type": "string"
        }
      ],
      "stateMutability": "view",
      "type": "function"
    },
    {
      "inputs": [
        {
          "internalType": "address",
          "name": "",
          "type": "address"
        }
      ],
      "name": "whitelistClaimed",
      "outputs": [
        {
          "internalType": "bool",
          "name": "",
          "type": "bool"
        }
      ],
      "stateMutability": "view",
      "type": "function"
    },
    {
      "inputs": [
        {
          "internalType": "uint256",
          "name": "_mintAmount",
          "type": "uint256"
        },
        {
          "internalType": "bytes32[]",
          "name": "_merkleProof",
          "type": "bytes32[]"
        }
      ],
      "name": "whitelistMint",
      "outputs": [],
      "stateMutability": "payable",
      "type": "function"
    },
    {
      "inputs": [],
      "name": "whitelistMintEnabled",
      "outputs": [
        {
          "internalType": "bool",
          "name": "",
          "type": "bool"
        }
      ],
      "stateMutability": "view",
      "type": "function"
    },
    {
      "inputs": [],
      "name": "withdraw",
      "outputs": [],
      "stateMutability": "nonpayable",
      "type": "function"
    }
  ],
  "bytecode": "0x60a06040819052600060808190526200001b91600c916200024f565b506040805160208101918290526000908190526200003c91600d916200024f565b506012805462ffffff191660011790553480156200005957600080fd5b50604051620030df380380620030df8339810160408190526200007c91620003c2565b855186908690620000959060029060208501906200024f565b508051620000ab9060039060208401906200024f565b5050600160005550620000be33620000f5565b6001600955620000ce8462000147565b6010839055620000de826200019b565b620000e981620001eb565b505050505050620004ac565b600880546001600160a01b038381166001600160a01b0319831681179093556040519116919082907f8be0079c531659141344cd1fd0a4f28419497f9722a3daafe3b4186f6b6457e090600090a35050565b6008546001600160a01b03163314620001965760405162461bcd60e51b81526020600482018190526024820152600080516020620030bf83398151915260448201526064015b60405180910390fd5b600f55565b6008546001600160a01b03163314620001e65760405162461bcd60e51b81526020600482018190526024820152600080516020620030bf83398151915260448201526064016200018d565b601155565b6008546001600160a01b03163314620002365760405162461bcd60e51b81526020600482018190526024820152600080516020620030bf83398151915260448201526064016200018d565b80516200024b90600e9060208401906200024f565b5050565b8280546200025d906200046f565b90600052602060002090601f016020900481019282620002815760008555620002cc565b82601f106200029c57805160ff1916838001178555620002cc565b82800160010185558215620002cc579182015b82811115620002cc578251825591602001919060010190620002af565b50620002da929150620002de565b5090565b5b80821115620002da5760008155600101620002df565b634e487b7160e01b600052604160045260246000fd5b600082601f8301126200031d57600080fd5b81516001600160401b03808211156200033a576200033a620002f5565b604051601f8301601f19908116603f01168101908282118183101715620003655762000365620002f5565b816040528381526020925086838588010111156200038257600080fd5b600091505b83821015620003a6578582018301518183018401529082019062000387565b83821115620003b85760008385830101525b9695505050505050565b60008060008060008060c08789031215620003dc57600080fd5b86516001600160401b0380821115620003f457600080fd5b620004028a838b016200030b565b975060208901519150808211156200041957600080fd5b620004278a838b016200030b565b965060408901519550606089015194506080890151935060a08901519150808211156200045357600080fd5b506200046289828a016200030b565b9150509295509295509295565b600181811c908216806200048457607f821691505b60208210811415620004a657634e487b7160e01b600052602260045260246000fd5b50919050565b612c0380620004bc6000396000f3fe6080604052600436106102725760003560e01c8063715018a61161014f578063b071401b116100c1578063d5abeb011161007a578063d5abeb0114610738578063db4bec441461074e578063e0a808531461077e578063e985e9c51461079e578063efbd73f4146107be578063f2fde38b146107de57600080fd5b8063b071401b14610678578063b767a09814610698578063b88d4fde146106b8578063c23dc68f146106d8578063c87b56dd14610705578063d2cab0561461072557600080fd5b806394354fd01161011357806394354fd0146105e557806395d89b41146105fb57806399a2557a14610610578063a0712d6814610630578063a22cb46514610643578063a45ba8e71461066357600080fd5b8063715018a6146105455780637cb647591461055a5780637ec4a6591461057a5780638462151c1461059a5780638da5cb5b146105c757600080fd5b806342842e0e116101e85780635bbb2177116101ac5780635bbb21771461048a5780635c975abb146104b757806362b99ad4146104d15780636352211e146104e65780636caede3d1461050657806370a082311461052557600080fd5b806342842e0e146103f557806344a0d68a146104155780634fdd43cb1461043557806351830227146104555780635503a0e81461047557600080fd5b806316ba10e01161023a57806316ba10e01461034c57806316c38b3c1461036c57806318160ddd1461038c57806323b872dd146103aa5780632eb4a7ab146103ca5780633ccfd60b146103e057600080fd5b806301ffc9a71461027757806306fdde03146102ac578063081812fc146102ce578063095ea7b31461030657806313faede614610328575b600080fd5b34801561028357600080fd5b50610297610292366004612347565b6107fe565b60405190151581526020015b60405180910390f35b3480156102b857600080fd5b506102c1610850565b6040516102a391906123bc565b3480156102da57600080fd5b506102ee6102e93660046123cf565b6108e2565b6040516001600160a01b0390911681526020016102a3565b34801561031257600080fd5b50610326610321366004612404565b610926565b005b34801561033457600080fd5b5061033e600f5481565b6040519081526020016102a3565b34801561035857600080fd5b506103266103673660046124cb565b6109ad565b34801561037857600080fd5b50610326610387366004612523565b6109f7565b34801561039857600080fd5b5061033e600154600054036000190190565b3480156103b657600080fd5b506103266103c536600461253e565b610a34565b3480156103d657600080fd5b5061033e600a5481565b3480156103ec57600080fd5b50610326610a3f565b34801561040157600080fd5b5061032661041036600461253e565b610b3a565b34801561042157600080fd5b506103266104303660046123cf565b610b55565b34801561044157600080fd5b506103266104503660046124cb565b610b84565b34801561046157600080fd5b506012546102979062010000900460ff1681565b34801561048157600080fd5b506102c1610bc1565b34801561049657600080fd5b506104aa6104a536600461257a565b610c4f565b6040516102a3919061261f565b3480156104c357600080fd5b506012546102979060ff1681565b3480156104dd57600080fd5b506102c1610d15565b3480156104f257600080fd5b506102ee6105013660046123cf565b610d22565b34801561051257600080fd5b5060125461029790610100900460ff1681565b34801561053157600080fd5b5061033e610540366004612689565b610d34565b34801561055157600080fd5b50610326610d82565b34801561056657600080fd5b506103266105753660046123cf565b610db8565b34801561058657600080fd5b506103266105953660046124cb565b610de7565b3480156105a657600080fd5b506105ba6105b5366004612689565b610e24565b6040516102a391906126a4565b3480156105d357600080fd5b506008546001600160a01b03166102ee565b3480156105f157600080fd5b5061033e60115481565b34801561060757600080fd5b506102c1610f71565b34801561061c57600080fd5b506105ba61062b3660046126dc565b610f80565b61032661063e3660046123cf565b611146565b34801561064f57600080fd5b5061032661065e36600461270f565b611282565b34801561066f57600080fd5b506102c1611318565b34801561068457600080fd5b506103266106933660046123cf565b611325565b3480156106a457600080fd5b506103266106b3366004612523565b611354565b3480156106c457600080fd5b506103266106d3366004612742565b611398565b3480156106e457600080fd5b506106f86106f33660046123cf565b6113e2565b6040516102a391906127bd565b34801561071157600080fd5b506102c16107203660046123cf565b61149c565b6103266107333660046127f2565b61160b565b34801561074457600080fd5b5061033e60105481565b34801561075a57600080fd5b50610297610769366004612689565b600b6020526000908152604090205460ff1681565b34801561078a57600080fd5b50610326610799366004612523565b61188f565b3480156107aa57600080fd5b506102976107b9366004612870565b6118d5565b3480156107ca57600080fd5b506103266107d936600461289a565b611903565b3480156107ea57600080fd5b506103266107f9366004612689565b6119a3565b60006001600160e01b031982166380ac58cd60e01b148061082f57506001600160e01b03198216635b5e139f60e01b145b8061084a57506301ffc9a760e01b6001600160e01b03198316145b92915050565b60606002805461085f906128bd565b80601f016020809104026020016040519081016040528092919081815260200182805461088b906128bd565b80156108d85780601f106108ad576101008083540402835291602001916108d8565b820191906000526020600020905b8154815290600101906020018083116108bb57829003601f168201915b5050505050905090565b60006108ed82611a3e565b61090a576040516333d1c03960e21b815260040160405180910390fd5b506000908152600660205260409020546001600160a01b031690565b600061093182610d22565b9050806001600160a01b0316836001600160a01b031614156109665760405163250fdee360e21b815260040160405180910390fd5b336001600160a01b0382161461099d5761098081336118d5565b61099d576040516367d9dca160e11b815260040160405180910390fd5b6109a8838383611a77565b505050565b6008546001600160a01b031633146109e05760405162461bcd60e51b81526004016109d7906128f8565b60405180910390fd5b80516109f390600d906020840190612298565b5050565b6008546001600160a01b03163314610a215760405162461bcd60e51b81526004016109d7906128f8565b6012805460ff1916911515919091179055565b6109a8838383611ad3565b6008546001600160a01b03163314610a695760405162461bcd60e51b81526004016109d7906128f8565b60026009541415610abc5760405162461bcd60e51b815260206004820152601f60248201527f5265656e7472616e637947756172643a207265656e7472616e742063616c6c0060448201526064016109d7565b60026009556000610ad56008546001600160a01b031690565b6001600160a01b03164760405160006040518083038185875af1925050503d8060008114610b1f576040519150601f19603f3d011682016040523d82523d6000602084013e610b24565b606091505b5050905080610b3257600080fd5b506001600955565b6109a883838360405180602001604052806000815250611398565b6008546001600160a01b03163314610b7f5760405162461bcd60e51b81526004016109d7906128f8565b600f55565b6008546001600160a01b03163314610bae5760405162461bcd60e51b81526004016109d7906128f8565b80516109f390600e906020840190612298565b600d8054610bce906128bd565b80601f0160208091040260200160405190810160405280929190818152602001828054610bfa906128bd565b8015610c475780601f10610c1c57610100808354040283529160200191610c47565b820191906000526020600020905b815481529060010190602001808311610c2a57829003601f168201915b505050505081565b80516060906000816001600160401b03811115610c6e57610c6e61242e565b604051908082528060200260200182016040528015610cb957816020015b6040805160608101825260008082526020808301829052928201528252600019909201910181610c8c5790505b50905060005b828114610d0d57610ce8858281518110610cdb57610cdb61292d565b60200260200101516113e2565b828281518110610cfa57610cfa61292d565b6020908102919091010152600101610cbf565b509392505050565b600c8054610bce906128bd565b6000610d2d82611cc0565b5192915050565b60006001600160a01b038216610d5d576040516323d3ad8160e21b815260040160405180910390fd5b506001600160a01b03166000908152600560205260409020546001600160401b031690565b6008546001600160a01b03163314610dac5760405162461bcd60e51b81526004016109d7906128f8565b610db66000611de2565b565b6008546001600160a01b03163314610de25760405162461bcd60e51b81526004016109d7906128f8565b600a55565b6008546001600160a01b03163314610e115760405162461bcd60e51b81526004016109d7906128f8565b80516109f390600c906020840190612298565b60606000806000610e3485610d34565b90506000816001600160401b03811115610e5057610e5061242e565b604051908082528060200260200182016040528015610e79578160200160208202803683370190505b509050610e9f604080516060810182526000808252602082018190529181019190915290565b60015b838614610f6557600081815260046020908152604091829020825160608101845290546001600160a01b0381168252600160a01b81046001600160401b031692820192909252600160e01b90910460ff16158015928201929092529250610f0857610f5d565b81516001600160a01b031615610f1d57815194505b876001600160a01b0316856001600160a01b03161415610f5d5780838780600101985081518110610f5057610f5061292d565b6020026020010181815250505b600101610ea2565b50909695505050505050565b60606003805461085f906128bd565b6060818310610fa257604051631960ccad60e11b815260040160405180910390fd5b600080546001851015610fb457600194505b80841115610fc0578093505b6000610fcb87610d34565b905084861015610fea5785850381811015610fe4578091505b50610fee565b5060005b6000816001600160401b038111156110085761100861242e565b604051908082528060200260200182016040528015611031578160200160208202803683370190505b5090508161104457935061113f92505050565b600061104f886113e2565b905060008160400151611060575080515b885b8881141580156110725750848714155b1561113357600081815260046020908152604091829020825160608101845290546001600160a01b0381168252600160a01b81046001600160401b031692820192909252600160e01b90910460ff161580159282019290925293506110d65761112b565b82516001600160a01b0316156110eb57825191505b8a6001600160a01b0316826001600160a01b0316141561112b578084888060010199508151811061111e5761111e61292d565b6020026020010181815250505b600101611062565b50505092835250909150505b9392505050565b8060008111801561115957506011548111155b6111755760405162461bcd60e51b81526004016109d790612943565b6010548161118a600154600054036000190190565b6111949190612987565b11156111b25760405162461bcd60e51b81526004016109d79061299f565b8180600f546111c191906129cd565b3410156112065760405162461bcd60e51b8152602060048201526013602482015272496e73756666696369656e742066756e64732160681b60448201526064016109d7565b3233146112255760405162461bcd60e51b81526004016109d7906129ec565b60125460ff16156112785760405162461bcd60e51b815260206004820152601760248201527f54686520636f6e7472616374206973207061757365642100000000000000000060448201526064016109d7565b6109a83384611e34565b6001600160a01b0382163314156112ac5760405163b06307db60e01b815260040160405180910390fd5b3360008181526007602090815260408083206001600160a01b03871680855290835292819020805460ff191686151590811790915590519081529192917f17307eab39ab6107e8899845ad3d59bd9653f200f220920489ca2b5937696c31910160405180910390a35050565b600e8054610bce906128bd565b6008546001600160a01b0316331461134f5760405162461bcd60e51b81526004016109d7906128f8565b601155565b6008546001600160a01b0316331461137e5760405162461bcd60e51b81526004016109d7906128f8565b601280549115156101000261ff0019909216919091179055565b6113a3848484611ad3565b6001600160a01b0383163b156113dc576113bf84848484611e4e565b6113dc576040516368d2bf6b60e11b815260040160405180910390fd5b50505050565b6040805160608082018352600080835260208084018290528385018290528451928301855281835282018190529281019290925290600183108061142857506000548310155b156114335792915050565b50600082815260046020908152604091829020825160608101845290546001600160a01b0381168252600160a01b81046001600160401b031692820192909252600160e01b90910460ff1615801592820192909252906114935792915050565b61113f83611cc0565b60606114a782611a3e565b61150b5760405162461bcd60e51b815260206004820152602f60248201527f4552433732314d657461646174613a2055524920717565727920666f72206e6f60448201526e3732bc34b9ba32b73a103a37b5b2b760891b60648201526084016109d7565b60125462010000900460ff166115ad57600e8054611528906128bd565b80601f0160208091040260200160405190810160405280929190818152602001828054611554906128bd565b80156115a15780601f10611576576101008083540402835291602001916115a1565b820191906000526020600020905b81548152906001019060200180831161158457829003601f168201915b50505050509050919050565b60006115b7611f46565b905060008151116115d7576040518060200160405280600081525061113f565b806115e184611f55565b600d6040516020016115f593929190612a3f565b6040516020818303038152906040529392505050565b8260008111801561161e57506011548111155b61163a5760405162461bcd60e51b81526004016109d790612943565b6010548161164f600154600054036000190190565b6116599190612987565b11156116775760405162461bcd60e51b81526004016109d79061299f565b8380600f5461168691906129cd565b3410156116cb5760405162461bcd60e51b8152602060048201526013602482015272496e73756666696369656e742066756e64732160681b60448201526064016109d7565b3233146116ea5760405162461bcd60e51b81526004016109d7906129ec565b601254610100900460ff1661174c5760405162461bcd60e51b815260206004820152602260248201527f5468652077686974656c6973742073616c65206973206e6f7420656e61626c65604482015261642160f01b60648201526084016109d7565b336000908152600b602052604090205460ff16156117ac5760405162461bcd60e51b815260206004820152601860248201527f4164647265737320616c726561647920636c61696d656421000000000000000060448201526064016109d7565b6040516bffffffffffffffffffffffff193360601b16602082015260009060340160405160208183030381529060405280519060200120905061182685858080602002602001604051908101604052809392919081815260200183836020028082843760009201919091525050600a549150849050612052565b6118635760405162461bcd60e51b815260206004820152600e60248201526d496e76616c69642070726f6f662160901b60448201526064016109d7565b336000818152600b60205260409020805460ff191660011790556118879087611e34565b505050505050565b6008546001600160a01b031633146118b95760405162461bcd60e51b81526004016109d7906128f8565b60128054911515620100000262ff000019909216919091179055565b6001600160a01b03918216600090815260076020908152604080832093909416825291909152205460ff1690565b8160008111801561191657506011548111155b6119325760405162461bcd60e51b81526004016109d790612943565b60105481611947600154600054036000190190565b6119519190612987565b111561196f5760405162461bcd60e51b81526004016109d79061299f565b6008546001600160a01b031633146119995760405162461bcd60e51b81526004016109d7906128f8565b6109a88284611e34565b6008546001600160a01b031633146119cd5760405162461bcd60e51b81526004016109d7906128f8565b6001600160a01b038116611a325760405162461bcd60e51b815260206004820152602660248201527f4f776e61626c653a206e6577206f776e657220697320746865207a65726f206160448201526564647265737360d01b60648201526084016109d7565b611a3b81611de2565b50565b600081600111158015611a52575060005482105b801561084a575050600090815260046020526040902054600160e01b900460ff161590565b60008281526006602052604080822080546001600160a01b0319166001600160a01b0387811691821790925591518593918516917f8c5be1e5ebec7d5bd14f71427d1e84f3dd0314c0f7b2291e5b200ac8c7c3b92591a4505050565b6000611ade82611cc0565b9050836001600160a01b031681600001516001600160a01b031614611b155760405162a1148160e81b815260040160405180910390fd5b6000336001600160a01b0386161480611b335750611b3385336118d5565b80611b4e575033611b43846108e2565b6001600160a01b0316145b905080611b6e57604051632ce44b5f60e11b815260040160405180910390fd5b6001600160a01b038416611b9557604051633a954ecd60e21b815260040160405180910390fd5b611ba160008487611a77565b6001600160a01b038581166000908152600560209081526040808320805467ffffffffffffffff198082166001600160401b0392831660001901831617909255898616808652838620805493841693831660019081018416949094179055898652600490945282852080546001600160e01b031916909417600160a01b42909216919091021783558701808452922080549193909116611c75576000548214611c7557805460208601516001600160401b0316600160a01b026001600160e01b03199091166001600160a01b038a16171781555b50505082846001600160a01b0316866001600160a01b03167fddf252ad1be2c89b69c2b068fc378daa952ba7f163c4a11628f55a4df523b3ef60405160405180910390a45050505050565b60408051606081018252600080825260208201819052918101919091528180600111611dc957600054811015611dc957600081815260046020908152604091829020825160608101845290546001600160a01b0381168252600160a01b81046001600160401b031692820192909252600160e01b90910460ff16151591810182905290611dc75780516001600160a01b031615611d5e579392505050565b5060001901600081815260046020908152604091829020825160608101845290546001600160a01b038116808352600160a01b82046001600160401b031693830193909352600160e01b900460ff1615159281019290925215611dc2579392505050565b611d5e565b505b604051636f96cda160e11b815260040160405180910390fd5b600880546001600160a01b038381166001600160a01b0319831681179093556040519116919082907f8be0079c531659141344cd1fd0a4f28419497f9722a3daafe3b4186f6b6457e090600090a35050565b6109f3828260405180602001604052806000815250612068565b604051630a85bd0160e11b81526000906001600160a01b0385169063150b7a0290611e83903390899088908890600401612b03565b602060405180830381600087803b158015611e9d57600080fd5b505af1925050508015611ecd575060408051601f3d908101601f19168201909252611eca91810190612b40565b60015b611f28573d808015611efb576040519150601f19603f3d011682016040523d82523d6000602084013e611f00565b606091505b508051611f20576040516368d2bf6b60e11b815260040160405180910390fd5b805181602001fd5b6001600160e01b031916630a85bd0160e11b1490505b949350505050565b6060600c805461085f906128bd565b606081611f795750506040805180820190915260018152600360fc1b602082015290565b8160005b8115611fa35780611f8d81612b5d565b9150611f9c9050600a83612b8e565b9150611f7d565b6000816001600160401b03811115611fbd57611fbd61242e565b6040519080825280601f01601f191660200182016040528015611fe7576020820181803683370190505b5090505b8415611f3e57611ffc600183612ba2565b9150612009600a86612bb9565b612014906030612987565b60f81b8183815181106120295761202961292d565b60200101906001600160f81b031916908160001a90535061204b600a86612b8e565b9450611feb565b60008261205f858461222c565b14949350505050565b6000546001600160a01b03841661209157604051622e076360e81b815260040160405180910390fd5b826120af5760405163b562e8dd60e01b815260040160405180910390fd5b6001600160a01b038416600081815260056020908152604080832080546fffffffffffffffffffffffffffffffff1981166001600160401b038083168b0181169182176801000000000000000067ffffffffffffffff1990941690921783900481168b01811690920217909155858452600490925290912080546001600160e01b0319168317600160a01b42909316929092029190911790558190818501903b156121d7575b60405182906001600160a01b038816906000907fddf252ad1be2c89b69c2b068fc378daa952ba7f163c4a11628f55a4df523b3ef908290a46121a06000878480600101955087611e4e565b6121bd576040516368d2bf6b60e11b815260040160405180910390fd5b8082106121555782600054146121d257600080fd5b61221c565b5b6040516001830192906001600160a01b038816906000907fddf252ad1be2c89b69c2b068fc378daa952ba7f163c4a11628f55a4df523b3ef908290a48082106121d8575b5060009081556113dc9085838684565b600081815b8451811015610d0d57600085828151811061224e5761224e61292d565b602002602001015190508083116122745760008381526020829052604090209250612285565b600081815260208490526040902092505b508061229081612b5d565b915050612231565b8280546122a4906128bd565b90600052602060002090601f0160209004810192826122c6576000855561230c565b82601f106122df57805160ff191683800117855561230c565b8280016001018555821561230c579182015b8281111561230c5782518255916020019190600101906122f1565b5061231892915061231c565b5090565b5b80821115612318576000815560010161231d565b6001600160e01b031981168114611a3b57600080fd5b60006020828403121561235957600080fd5b813561113f81612331565b60005b8381101561237f578181015183820152602001612367565b838111156113dc5750506000910152565b600081518084526123a8816020860160208601612364565b601f01601f19169290920160200192915050565b60208152600061113f6020830184612390565b6000602082840312156123e157600080fd5b5035919050565b80356001600160a01b03811681146123ff57600080fd5b919050565b6000806040838503121561241757600080fd5b612420836123e8565b946020939093013593505050565b634e487b7160e01b600052604160045260246000fd5b604051601f8201601f191681016001600160401b038111828210171561246c5761246c61242e565b604052919050565b60006001600160401b0383111561248d5761248d61242e565b6124a0601f8401601f1916602001612444565b90508281528383830111156124b457600080fd5b828260208301376000602084830101529392505050565b6000602082840312156124dd57600080fd5b81356001600160401b038111156124f357600080fd5b8201601f8101841361250457600080fd5b611f3e84823560208401612474565b803580151581146123ff57600080fd5b60006020828403121561253557600080fd5b61113f82612513565b60008060006060848603121561255357600080fd5b61255c846123e8565b925061256a602085016123e8565b9150604084013590509250925092565b6000602080838503121561258d57600080fd5b82356001600160401b03808211156125a457600080fd5b818501915085601f8301126125b857600080fd5b8135818111156125ca576125ca61242e565b8060051b91506125db848301612444565b81815291830184019184810190888411156125f557600080fd5b938501935b83851015612613578435825293850193908501906125fa565b98975050505050505050565b6020808252825182820181905260009190848201906040850190845b81811015610f655761267683855180516001600160a01b031682526020808201516001600160401b0316908301526040908101511515910152565b928401926060929092019160010161263b565b60006020828403121561269b57600080fd5b61113f826123e8565b6020808252825182820181905260009190848201906040850190845b81811015610f65578351835292840192918401916001016126c0565b6000806000606084860312156126f157600080fd5b6126fa846123e8565b95602085013595506040909401359392505050565b6000806040838503121561272257600080fd5b61272b836123e8565b915061273960208401612513565b90509250929050565b6000806000806080858703121561275857600080fd5b612761856123e8565b935061276f602086016123e8565b92506040850135915060608501356001600160401b0381111561279157600080fd5b8501601f810187136127a257600080fd5b6127b187823560208401612474565b91505092959194509250565b81516001600160a01b031681526020808301516001600160401b0316908201526040808301511515908201526060810161084a565b60008060006040848603121561280757600080fd5b8335925060208401356001600160401b038082111561282557600080fd5b818601915086601f83011261283957600080fd5b81358181111561284857600080fd5b8760208260051b850101111561285d57600080fd5b6020830194508093505050509250925092565b6000806040838503121561288357600080fd5b61288c836123e8565b9150612739602084016123e8565b600080604083850312156128ad57600080fd5b82359150612739602084016123e8565b600181811c908216806128d157607f821691505b602082108114156128f257634e487b7160e01b600052602260045260246000fd5b50919050565b6020808252818101527f4f776e61626c653a2063616c6c6572206973206e6f7420746865206f776e6572604082015260600190565b634e487b7160e01b600052603260045260246000fd5b602080825260149082015273496e76616c6964206d696e7420616d6f756e742160601b604082015260600190565b634e487b7160e01b600052601160045260246000fd5b6000821982111561299a5761299a612971565b500190565b6020808252601490820152734d617820737570706c792065786365656465642160601b604082015260600190565b60008160001904831182151516156129e7576129e7612971565b500290565b60208082526033908201527f416c6b6562756c616e74726962652e696f203a3a2043616e6e6f742062652063604082015272185b1b195908189e48184818dbdb9d1c9858dd606a1b606082015260800190565b600084516020612a528285838a01612364565b855191840191612a658184848a01612364565b8554920191600090600181811c9080831680612a8257607f831692505b858310811415612aa057634e487b7160e01b85526022600452602485fd5b808015612ab45760018114612ac557612af2565b60ff19851688528388019550612af2565b60008b81526020902060005b85811015612aea5781548a820152908401908801612ad1565b505083880195505b50939b9a5050505050505050505050565b6001600160a01b0385811682528416602082015260408101839052608060608201819052600090612b3690830184612390565b9695505050505050565b600060208284031215612b5257600080fd5b815161113f81612331565b6000600019821415612b7157612b71612971565b5060010190565b634e487b7160e01b600052601260045260246000fd5b600082612b9d57612b9d612b78565b500490565b600082821015612bb457612bb4612971565b500390565b600082612bc857612bc8612b78565b50069056fea26469706673582212207767a77933795cebf66f3bca49b35365cedeb8498c07a6df492574af06e408fa64736f6c634300080900334f776e61626c653a2063616c6c6572206973206e6f7420746865206f776e6572",
  "linkReferences": {},
  "deployedLinkReferences": {}
}